:020000040800F2
:10000000380D00204D02000839360008293100085B
:1000100035360008550C000879440008000000003F
:10002000000000000000000000000000853800080B
:10003000890C00080000000069360008B938000883
:1000400067020008670200086702000867020008EC
:1000500067020008670200086702000867020008DC
:10006000670200086702000867020008590C0008D0
:100070006702000867020008690C0008790C000894
:1000800067020008670200086702000867020008AC
:10009000670200086702000867020008670200089C
:1000A000670200086702000867020008670200088C
:1000B000413900080000000000000000670200084D
:1000C000670200086702000867020008670200086C
:1000D0006702000869440008670200086702000818
:1000E000670200086702000800000000000000002E
:1000F0000000000000000000000000000000000000
:10010000000000006702000800000000670200080D
:1001100000000000000000006702000867020008FD
:10012000670200086702000867020008670200080B
:10013000670200080000000000000000000000004E
:10014000670200086702000867020008000000005C
:1001500067020008670200086702000867020008DB
:10016000670200086702000867020008000000003C
:10017000670200086702000800000000000000009D
:1001800067020008670200086702000800F002F832
:1001900000F04CF80AA090E8000C82448344AAF1D5
:1001A0000107DA4501D100F041F8AFF2090EBAE8D3
:1001B0000F0013F0010F18BFFB1A43F0010318479B
:1001C0006C4C00008C4C0000103A24BF78C878C1F9
:1001D000FAD8520724BF30C830C144BF04680C604D
:1001E000704700000023002400250026103A28BF95
:1001F00078C1FBD8520728BF30C148BF0B60704799
:10020000662904F0A285642900F0E0800020704790
:100210001FB504F08DFD00F0A9FB040000200021B3
:1002200004F070FDE0601FBD10B510BD00F09EFC35
:100230001146FFF7EDFF04F05BF900F0BCFC03B4DE
:10024000FFF7F2FF03BC00F0FDFC00000948804707
:1002500009480047FEE7FEE7FEE7FEE7FEE7FEE7A8
:10026000FEE7FEE7FEE7FEE704480549054A064BC0
:10027000704700002D3900088D0100083807002064
:10028000380D0020380900203809002053EA020CFC
:1002900000F069802DE9F04B4FF00006002B1FBFE6
:1002A000B3FA83F503FA05F424FA05F65E4012BFAB
:1002B0001643B2FA82F502FA05F4C5F120051EBF15
:1002C00022FA05FC44EA0C04203556EA044C4FEAB5
:1002D000144418BF641C4FF000084FF0000990420E
:1002E00071EB030C39D3002919BFB1FA81F701FA78
:1002F00007F6B0FA80F700FA07F6C7F120071EBF2D
:1003000020FA07FC46EA0C062037B6FBF4FCA7EB04
:100310000507103F07F01F0BCBF120062CFA06F65D
:100320000CFA0BFB44BFB3460026202FA4BF5E4649
:100330004FF0000B5BEA060C08BF4FF0010B19EB06
:100340000B0948EB0608ABFB027C06FB02CC0BFB5F
:1003500003CCC01B71EB0C01C1E70B4602464146C2
:100360004846BDE8F08B13B5084318BF4FF0FF3087
:100370000146AFF30080BDE81C40704770B50446ED
:1003800085690068C10601D5302600E02026C00737
:1003900007D070BDD4E9012130469047206A401C47
:1003A00020626D1EF6D570BD70B504468569007873
:1003B000C00707D170BDD4E9012120209047206AF1
:1003C000401C20626D1EF6D570BD00002DE9F04185
:1003D0000646002410687529314616A510D0AFF3E3
:1003E0000080002802DA404213A507E031688A073E
:1003F00001D512A502E0490704D511A5012401E0A9
:10040000AFF3008000210A2206F1240709E0B0FBC7
:10041000F2FCB0FBF2F302FB1C00303078541846BB
:10042000491C0028F3D123462A463046BDE8F04156
:1004300000F032B8000000002D0000002B0000008A
:10044000200000004FF0000200B513469446964687
:10045000203922BFA0E80C50A0E80C50B1F12001D7
:10046000BFF4F7AF090728BFA0E80C5048BF0CC085
:100470005DF804EB890028BF40F8042B08BF7047E3
:1004800048BF20F8022B11F0804F18BF00F8012B55
:1004900070477047704770472DE9F0470D46994601
:1004A0009246044600F124080168880604D5E069F4
:1004B00021F01001216000E00120A84201DD471B6E
:1004C00000E00027A1697A1902EB0900081AA0616F
:1004D0002078C00602D42046FFF750FF002608E02F
:1004E000D4E901211AF806009047206A401C761CC6
:1004F00020624E45F4DB2078C0060AD52046FFF77F
:100500003DFF06E0D4E9012130209047206A401CDD
:100510002062381EA7F10107F4DC07E0D4E90121CD
:1005200018F805009047206A401C2062281EA5F19B
:100530000105F3DC2046FFF737FF2078000602D5DF
:100540000220BDE8F0870120FBE72DE9FF4F0C46B4
:100550001E464FF0FF378BB0D2E90001DDF8608016
:100560000A908A46C1F30A5505B93D46002108465E
:100570004FF00000BAF1000F00F4400005DA00EB84
:1005800080004FF4400101EA50004FEA9059B9F160
:10059000010F00DDB9460A9850EA4A000ED044F631
:1005A0001050A5F2FF3545432F14B8F1000F1ED0AF
:1005B0007542291E1EDDC9F100021CE0B8F1010FD1
:1005C0004FF0000001D0302103E0F24305E0215458
:1005D000401CB042FBDB30460022002121540B9925
:1005E000C1F80880C1E900200FB000F0BCB9BD1B04
:1005F0006D1CDEE74A4600DA694206A800F040FAC0
:1006000006AB93E8070003AB83E8070050460A995E
:1006100003F098FF8DE80700A0F500501F38009008
:100620000398002D0ADD42F21F014A4608440023C8
:1006300003A90390684604F001FA09E0A0F5005010
:100640004A461F38002303A90390684604F00BFABA
:100650008DE807000004000C03D04FF0FF30410884
:1006600000E01046B8F1000F03D0002200921546BA
:100670001EE0751E05D400F07DF9303262556D1E06
:10068000F9D5B3460122084302D000227F1C04E0C2
:100690002078302801D100227F1E002A099784D0BB
:1006A0001DE0112D07DA00F065F9303262556D1C3E
:1006B00050EA0102F5D1084302D00098C8B10EE01B
:1006C0000021681E05E0235C625C63542254401ED6
:1006D000491C8142F7DBAB46A81B401E0990002055
:1006E00004F80B000B98099AC0F80880C0E9002BA9
:1006F0007AE711264FF0000857E72DE9F04F8846BA
:100700000446D21D22F0070191B0D1E90001CDE9E4
:100710000A0104F0DFFA02460B98C00F01D02D2029
:1007200007E02068810701D52B2002E0202101EAA3
:10073000C000032A099001D0072A05DB0346414681
:10074000204600F05DF90BE12078800601D5E069D4
:1007500000E00620B8F1650F814606D0B8F1660FBB
:1007600018D0B8F1670F70D131E00020B9F1110F46
:10077000009001DB112301E009F101030AAA01A99C
:100780000CA8FFF7E2FEDDE90C70002609F1010577
:10079000834647E001204B4600904FF000470AAAED
:1007A00001A90CA8FFF7D1FEDDE90DB00C995D465B
:1007B000002610B909F101000D18B9EB050003D4AA
:1007C000C0F1FF3609F10105A5EB09002BE0B9F1F5
:1007D000010F01DA4FF001090020B9F1110F00906B
:1007E000484601DD112300E003460AAA01A90CA82E
:1007F000FFF7ABFEDDE90C704D46002683462078FE
:1008000000070AD4AB4500DA5D4601A8012D04DDDE
:10081000411911F8011C302907D04F4502DA17F1B0
:10082000040F04DA012082460FE06D1EEEE7002F70
:1008300002DCED1B3E4403E0781CA84200DD7D1C79
:10084000B81B00F1010A4FF000472078000703D4DD
:10085000AA4501DB4FF0FF3A0021B7F1004F0DF13F
:1008600043088DF8431024D002202B23002F01DAF7
:100870007F422D230A21021EA0F1010000DC5FB19E
:1008800097FBF1FC97FBF1F201FB1C7C17460CF186
:10089000300C08F801CDEEE7A8F1010003702188C3
:1008A000090501D5452100E06521A0F1010800F806
:1008B000011C09980FA9A1EB0807FF1D00B1012039
:1008C000411901EBEA70A1693844081A401EA06181
:1008D0002078C00602D42046FFF750FD099828B1C1
:1008E000D4E901219047206A401C20622078C0068C
:1008F00022D52046FFF742FD1EE0002E04DBB34563
:1009000002DD01A8805D00E03020D4E9012190479C
:10091000206A401C2062761CAAF101005FEA000AEE
:100920000AD100F023F8C0680168405CD4E90121D5
:100930009047206A401C2062281EA5F10105DCDCDE
:1009400007E0D4E9012118F8010B9047206A401C08
:100950002062381EA7F10107F3DC2046FFF724FDD3
:10096000032011B041E630BCBDE8C08F004870479D
:100970003000002030B5B0F10A0271F100034FEAF7
:10098000900E4EEA817EB0EB0E0061EB91014FEAD2
:10099000101E4EEA017E10EB0E0041EB11114FEAE2
:1009A000102E4EEA016E10EB0E0041EB11214FEAC2
:1009B000104E4EEA014E10EB0E0041EB1141401873
:1009C00041F100014FEAD00040EA41704FEAD10105
:1009D0004FEA810444EA907410EB800544EB010473
:1009E0006D1944EB0404521BA3414FF0000348BFB0
:1009F0000A3200D530BD401C41F1000130BD00007D
:100A00002DE9F0411F46044603260168072A01F438
:100A1000006004DB08B116A505E016A503E008B1E7
:100A200015A500E015A521F010002060A069C01EEA
:100A3000A0610FB1401EA0612046FFF79FFC4FB19F
:100A4000D4E9012138469047206A401C2062C01C2E
:100A5000206206E0206AFAE7D4E9012115F8010BCB
:100A60009047761EF8D22046FFF79EFCBDE8F08145
:100A70004E414E006E616E00494E4600696E660042
:100A80002DE9F047814616468AB0354878440DC8AE
:100A90008DE80D0032487844801C03AC0DC884E812
:100AA0000D0041F69B300844372190FBF1F290FB9A
:100AB000F1F5A5F1800501FB12041B3C02D564424F
:100AC000012000E00020DFF898A080460027FA44CB
:100AD000AAF1BE0A0EE0E0070AD03246684607EBEC
:100AE000470101230AEB810103F0BDFF8DE80700F8
:100AF00064107F1C002CEED1194F7F44AE3F19E0EB
:100B0000E80715D007EB04100DF1180A90E80E0065
:100B10008AE80E00C068F04201D198190890324668
:100B2000012306A903A803F09EFF03AB83E8070097
:100B30006D10641C002DE3D14FF00103324669466D
:100B4000B8F1000F03A802D003F078FF01E003F032
:100B50008AFFC9E90001C9F808200AB0BDE8F0879A
:100B60003C43000000487047100000207546FFF726
:100B7000F9FFAE4605006946534620F0070085465A
:100B800018B020B5FFF770FBBDE820404FF000061D
:100B90004FF000074FF000084FF0000BAC46ACE8F8
:100BA000C009ACE8C009ACE8C009ACE8C00921F054
:100BB00007018D46704710B50446AFF3008020460C
:100BC000BDE81040FFF73BBB30B44FF0013C50F89C
:100BD000042B51F8043BCCFA52F4D51A20D1FCB9BD
:100BE00050F8042B51F8043BCCFA52F4D51A17D123
:100BF000B4B950F8042B51F8043BCCFA52F4D51A8E
:100C00000ED16CB950F8042B51F8043BCCFA52F4D5
:100C1000D51A05D1002CDAD030BC4FF00000704757
:100C200029BAB1FA81F111F01801D1F12000844004
:100C3000F2D1CA40CB4012F0FF0213F0FF0330BCE8
:100C4000D01A704701491820ABBEFEE7260002000B
:100C500070470000FEE7000080B540F2DC40C2F2C1
:100C6000000000F043FB80BD80B540F26C50C2F242
:100C7000000000F03BFB80BD80B540F22450C2F282
:100C8000000000F033FB80BD70470000EFF31080E0
:100C900072B600BFFEE70000F0B581B00446002048
:100CA000009094F85000012802D1022001B0F0BD5C
:100CB00020680D46012184F8501002F067FA48B10F
:100CC000606D40F0200060650120002184F8501024
:100CD00001B0F0BD6868052807D8023803289ABF1C
:100CE000B6A151F82000062068602068D5E90021EF
:100CF00002F050FA206802F049FA216806460846D8
:100D000002F034FA304340F09B8020682968AA68DA
:100D100002F054FA206829696B69C268042940F01E
:100D200088804FF6FF770021C0F2070702F018FA1B
:100D3000216806460846002102F012FA720390FA72
:100D4000A0F12A68B1FA81F108BFC0F3846192FA78
:100D5000A2F0B0FA80F0530308BFC2F3846081426E
:100D600003D12068002102F077FA2068012102F007
:100D7000F7F9216806460846012102F0F1F990FAD8
:100D8000A0F12A68B1FA81F13E4208BFC0F3846144
:100D900092FAA2F0B0FA80F03A4208BFC2F384603F
:100DA000814203D12068012102F056FA2068022115
:100DB00002F0D6F9216806460846022102F0D0F971
:100DC00090FAA0F12A68B1FA81F13E4208BFC0F35F
:100DD000846192FAA2F0B0FA80F03A4208BFC2F3FE
:100DE0008460814203D12068022102F035FA206834
:100DF000032102F0B5F9216806460846032102F0F6
:100E0000AFF990FAA0F12A68B1FA81F13E4208BF29
:100E1000C0F3846192FAA2F0B0FA80F03A4208BFBF
:100E2000C2F3846081420BD12068032102F014FADE
:100E300006E0062707EA92072A68BB4002F0FAF9A3
:100E4000206802F09BF900284DD120682968EA68E3
:100E500002F0C6F9E8680021C4F27F01884242D15D
:100E6000D5F800E04FF080619EFAAEF27346B2FA18
:100E700082F76FF3DF433A462068002B08BF4FEA42
:100E80009E62561C01EB826106F01E0C01F0F842D6
:100E900006F01F010126BCF1090F06FA01F60DD874
:100EA00042EA0601002B08BF4FEA9E677A1C02F057
:100EB0001F0202EB420241EA025111E0002B08BF7F
:100EC0004FEA9E67791C01F01F01002301EB4101ED
:100ED000CFF6206303EB01513243114341F000711F
:100EE000AA6802F06BF9688848F20801084226D027
:100EF00002F02EF92A680021CCF252718A42014692
:100F000008BF11F400001CD00020CCF684308242CF
:100F100008BF11F080701CD00120C8F2000082428E
:100F20004FF0000008BF11F480027FF4CEAE2068BD
:100F30000022C5F20402904238D00020C5E600200D
:100F4000C3E620680022C5F20402904209D00020C6
:100F5000BBE620680022C5F20402904223D00020A4
:100F6000B3E641F4000002F05BF940F20000C2F287
:100F70000000006842F663518009C0F23E51A0FBB8
:100F80000101880900EB40000C2101EB800000907A
:100F9000009888B1009801380090009800284FF020
:100FA0000000F7D191E641F0807001E041F480004B
:100FB00002F036F9002088E6002086E60C000000EA
:100FC00012000000180000000001000070B582B09F
:100FD000044600200190CCB1606D30B9204600F08D
:100FE000C1F80020A06584F85000206802F0C2F823
:100FF00010B1206802F09AF8206802F0C3F838B106
:10100000206802F0BFF8F0B1002525E00125A5E039
:10101000206802F093F840F20000C2F2000000687D
:1010200042F663518009C0F23E51A0FB01018809DC
:10103000022101EB400000BF019001980028DFD0A1
:1010400001980138F8E7606D012540F010006065F7
:10105000A06D40F00100A065206802F097F8616D76
:1010600001F010010843606D03D040F0100001252D
:1010700073E020F4817002306065206802F07EF831
:1010800040B90020C5F2040002F078F810B9606899
:1010900002F0BCF8607E616B41EA4030D4E9022185
:1010A000084394F820101043012940EA014106D179
:1010B000606A0022CFF6FE7202EB40400143A06A54
:1010C00028B100F47070E26A084340EA0201206827
:1010D0004CF20703C268CFF6F0731A401143C160A7
:1010E00002F054F821680646084602F03FF8304303
:1010F00024D194F83000217E4200206842EA8131F8
:10110000C26844F202039A431143C16094F8382044
:101110000169012A0FD140F2FD7204F13C0621EA77
:10112000020C4CCEA16C42EA0C021A43324311432A
:1011300041F0010101E021F0010101612068216914
:10114000026B012922F00F0102D1E269013A114339
:101150000163606D012161F301006065284602B002
:1011600070BD000070B59EB0044600201D90CDE912
:101170001B00CDE9190002A85C21FFF763F9206884
:101180000021C5F20401884201D01EB070BD4FF4A9
:10119000804002904FF08050169003200390012071
:1011A000049008200590072006900220CDE9070052
:1011B0004FF08070099002A800F0ECFA002818BFE8
:1011C000FFF764FD41F24C00C4F202000168002602
:1011D00041F400510160016801F40051019101994D
:1011E000016841F004010160006819A900F00400E1
:1011F000019001980F2019900B201A9040F60000E2
:10120000C4F600001B9600F02DF940F2DC450820E2
:10121000C2F20005C4F202008021C5E9000605F112
:1012200010004FF480724FF480634FF0200C80E880
:101230000E102846C5E902662E6200F0ADF80028BF
:1012400018BFFFF723FDE564AC621EB070BD00005F
:10125000014690F82500022815D10868D1E910C38D
:10126000026822F00E020260026822F001020260AF
:1012700003F01C00012202FA00F0CCF80400002068
:1012800081F8252002E00420C8630120002281F8B3
:101290002420704780B590F82510022921D10168DB
:1012A000D0F838E0D0E910C30A68BEF1000F22F090
:1012B0000E020A600A6822F001020A6003F01C01B3
:1012C0004FF0010202FA01F1CCF804104FF00001D6
:1012D00080F8252080F8241001D0F047002108462E
:1012E00080BD0421C1630121084680BDB0B50268FC
:1012F000D0E910C4DCF80050136804F01C0E590744
:1013000012D5042101FA0EF414EA05010CD011687B
:10131000890603D4116821F004011160CCF804405F
:10132000016BB9B38847B0BD990718D5022101FAFE
:101330000EF414EA050112D01168890606D411686A
:1013400021F00A011160012180F82510CCF8044039
:10135000C16A002280F82420E1B18847B0BD190796
:1013600058BFB0BD082101FA0EF1294012D0116812
:1013700021F00E011160012101FA0EF2CCF80420D7
:10138000C16380F82510416B0022002980F82420D9
:1013900018BF8847B0BD0000002804BF0120704777
:1013A0002DE9F04140F2000CC4F2020C02684FF645
:1013B000F8310CF58163CBF6FD719A4238BF01F527
:1013C00080614CF6CD431144CCF6CC43A1FB031312
:1013D0006FF003060CF5806506EA9303D0E9021E60
:1013E000D0F810803CBF0025C4F20205C0E91053BC
:1013F000022380F82530136847F6F075AB4300F1FF
:1014000014070B43E0CF43EA0E0343EA08032B43E0
:10141000046A33433B432343B1F5804F136016D036
:10142000D0E910324FF49566416802F01C020F2794
:10143000634508BFA8265CF806309740BB434CF8CC
:1014400006305CF80630914019434CF80610002134
:101450000122C16380F8252080F82410BDE8F04106
:10146000084670472DE9F04F83B00D68002D00F05D
:10147000C58000F138424FEAB22241F200070192E2
:10148000C4F600070722002600244FF0010AB842E4
:1014900008BF0422009209E00D68043435FA0AF20C
:1014A0000AF1010A06F1020600F0A880AAF1010C77
:1014B000012202FA0CFB15EA0B09EDD0D1F80480E9
:1014C00008F00305A5F1010EBEF1010F11D88768E0
:1014D0000322CB68B24027EA0202B3401A4382607B
:1014E0004268C8F3001322EA0B0203FA0CF31A4312
:1014F0004260032D1CD0C26803238F68B3409A4317
:1015000007FA06F31A43022DC26011D16FF00302ED
:1015100002EA5C02024404F01C070F23D2F820E028
:1015200003FA07F50B692EEA0505BB402B4313624E
:10153000026803234F68B3409A4307F00303B340A4
:101540001A4317F4403F0260A6D041F26003C4F290
:1015500002031A6840F2004E42F001021A601A6853
:10156000C4F2010E02F001020292029A2CF0030270
:101570004FF608487244CFF6FF7852F8083004F06E
:101580000C070F25BD4023EA050C019B009D042B91
:1015900038BF1D4605FA07F747EA0C0342F8083042
:1015A000DEF808204B6842EA090740F20C4CDD02E5
:1015B00058BF22EA0907CEF80870C4F2010CDCF823
:1015C00000209D0242EA090758BF22EA0907CCF829
:1015D0000070DEF804209D0342EA090758BF22EAA2
:1015E0000907CEF80470DEF80020DB0342EA0907A1
:1015F00058BF22EA0907CEF800704DE703B000F0AB
:1016000000B830BCBDE8C08F40F23470C2F20000B8
:101610000068704740F2040040F23471C2F20000EA
:10162000C2F2000100780A681044086070470000A8
:1016300080B5032000F066F80F2000F009F80028BC
:101640001CBF012080BD00F02FF8002080BD0000ED
:10165000B0B540F20401C2F20001097801B30446BA
:1016600040F20000C2F200004FF47A720068B2FB50
:10167000F1F1B0FBF1F000F0D9FE0F2C4FF00105B5
:101680000CD858B94FF0FF3021460022002500F059
:1016900029F840F20800C2F2000004602846B0BDFC
:1016A00001252846B0BD000082B041F25800C4F2C6
:1016B0000200816841F001018160816801F001014F
:1016C00001910199016841F080510160006800F0CA
:1016D00080500090009802B07047000080B502F082
:1016E000CDFE80BD70B514460D46064602F0D6FE0E
:1016F0002946224601F0A2FF0146304602F0D6FEFE
:1017000070BD000080B502F0E3FE80BD47F200012D
:10171000C4F200010A68B0F5007F02F4C06026D16F
:10172000B0F5007F21D00868012262F34A200860EA
:1017300040F20000C2F200000068322358434DF628
:101740008363C4F21B33A0FB030302EB934000BF8F
:101750004B69421E824203D213F480601046F7D1D7
:101760004869400544BF0320704700207047B0F52A
:10177000806FFAD00868022262F34A2008600020D5
:101780007047000047F20000C4F20000006800F457
:10179000C06070472DE9F04782B00446407841F2BE
:1017A00088070007C4F2020702D44FF0000A2EE0B7
:1017B000606C88B1B0F5400F17D0B0F5000F1BD1A9
:1017C00057F87C0C4FF0000A40F4803047F87C0C4E
:1017D000BAF1000F0ED114E0201D002101F046FFE8
:1017E0008246BAF1000F05D10BE04FF0000ABAF1C2
:1017F000000F06D0D0460CE04FF0010ABAF1000FFE
:10180000F8D13868616C20F44000084338604FF02C
:101810000008A078800701D4C24664E057F8300C75
:1018200010F080590BD157F8300C40F0805047F839
:10183000300C57F8300C00F080500190019847F2BE
:101840000005C4F20005286840F480702860FFF7A6
:10185000DBFE06462868C00506D4FFF7D5FE801BD0
:101860000328F7D34FF0030ABAF1000F32D1B8685A
:1018700010F4407011D0A16D88420BD0B868B968DF
:1018800020F4407041F48031B960B96821F48031AE
:10189000B960B860C00703D112E00020C0070FD0C4
:1018A000FFF7B2FE064641F2893500BFB8688007EF
:1018B00006D4FFF7A9FE801BA842F7D34FF0030A16
:1018C000BAF1000F06D1B868A16D20F4407008434A
:1018D000C246B860B9F1000F05D157F8300C20F0BE
:1018E000805047F8300C2068C10712D1810718D406
:1018F00041071ED4810624D481052AD4410530D461
:10190000410636D401063CD4C10542D4000348D474
:1019100061E03968226A21F00301114339608107CF
:10192000E6D53968626A21F00C011143396041073C
:10193000E0D53968A26A21F030011143396081068F
:10194000DAD53968E26A21F44061114339608105D2
:10195000D4D53968E26B21F4402111433960410547
:10196000CED53968226C21F440111143396041060B
:10197000C8D53968226B21F4405111433960010602
:10198000C2D53968626B21F4404111433960C10509
:10199000BCD53968A26B21F4403111433960000392
:1019A00019D53968A06C21F040610143B0F1806F16
:1019B000396009D0B0F1006F0DD157F87C0C40F4BC
:1019C000801047F87C0C06E0201D012101F04EFE3E
:1019D000002818BF8246A078400719D53968E06C06
:1019E00021F040610143B0F1806F396009D0B0F15E
:1019F000006F0DD157F87C0C40F4801047F87C0C38
:101A000006E0201D012101F031FE002818BF8246AA
:101A1000607840060FD53868216D20F040500843AB
:101A2000B1F1805F386006D1201D022101F01EFE59
:101A3000002818BF82466078000605D53868616DB9
:101A400020F0804008433860504602B0BDE8F0877F
:101A50002DE9F04381B0002800F0918042F20008A7
:101A6000C4F202080446D8F800000D4600F0070052
:101A700088420CD2D8F8000020F007002843C8F8AC
:101A80000000D8F8000000F00700A84277D12068D5
:101A900041F208098107C4F202090DD5A168D9F8FD
:101AA000002002F0F002914206D9D9F8002022F07D
:101AB000F0021143C9F80010C00756D12068810711
:101AC0000DD5A168D9F8002002F0F002914206D2AB
:101AD000D9F8002022F0F0021143C9F80010D8F81C
:101AE000001001F00701A9420CD9D8F8001021F02C
:101AF00007012943C8F80010D8F8001001F00701C9
:101B0000A9423CD1410707D5D9F80010E26821F479
:101B1000E0611143C9F80010000708D5D9F80000AA
:101B2000216920F4605040EAC100C9F8000000F0CB
:101B300085F8D9F8001044F6E452C1F30311C0F659
:101B40000002515C40F2000201F01F0120FA01F195
:101B500040F20800C2F200000068C2F20002116008
:101B6000FFF776FD01B0BDE8F083606858B1022848
:101B70002CD003282FD159F8081C890107D4012043
:101B800001B0BDE8F08359F8081C8907F7D5D9F8EA
:101B9000001021F003010843C9F80000FFF734FDED
:101BA000064641F2883700BFD9F80000616800F0AE
:101BB0000C00B0EB810F3FF481AFFFF725FD801BD8
:101BC000B842F1D9032001B0BDE8F08359F8081CF0
:101BD0008903D4D5DBE759F8081C4905CFD5D6E7EA
:101BE00040F20000C2F200000068704780B5FFF7C5
:101BF000F7FF41F20801C4F20201096844F6F45209
:101C0000C1F30221C0F60002515C01F01F01C8407F
:101C100080BD000080B5FFF7E3FF41F20801C4F288
:101C20000201096844F6F452C1F3C221C0F6000271
:101C3000515C01F01F01C84080BD000041F20C0161
:101C4000C4F2020151F8040C10F00C02086805D02F
:101C50000C2A40D100F0030001283CD151F80C0CB3
:101C6000000703D4D1F88800000A02E051F80C0CF8
:101C7000000944F6FC5300F00F00C0F6000353F8CF
:101C80002030002A184618BF00200C2A18BF7047C1
:101C9000086800F00300022806D0032804BF41F2C0
:101CA0000023C0F27A0303E042F20043C0F2F403DF
:101CB00008680A68C0F30210C2F3062209680130FE
:101CC0005A43B2FBF0F0C1F34161022202EB410141
:101CD000B0FBF1F07047042A07D0082A0BD141F27B
:101CE00000200023C0F27A00CFE742F20040002338
:101CF000C0F2F400C9E700200023C6E72DE9F04355
:101D000081B0002800F0428241F200060446C4F28D
:101D10000206B068F168227800F00C08D00601F0E5
:101D200003071CD42078C00700F0ED80B8F1080F3D
:101D300043D0B8F10C0F08BF032F3ED06568B5F54E
:101D4000A02F00F0BB80B5F5803F00F0BB8030686D
:101D500020F480303060306820F48020B5E0B8F1A5
:101D6000000F1BD0B8F10C0F08BF012F16D0A169CE
:101D70003068002978D040F001003060FFF744FC63
:101D8000054600BF3068800700F18080FFF73CFC0B
:101D9000401B02284FF00300F4D954E2306880075A
:101DA00003D5A069002800F0F181206A3168090795
:101DB0000CD4D6F89410090909E03068800340F18A
:101DC000A2806068002840F09E80DFE1316801F069
:101DD000F001884216D901F00DFD002840F0D681AF
:101DE000306840F0080030603068D4E9072120F006
:101DF000F00008433060706820F47F4040EA022021
:101E0000706013E03168B8F1000F41F008013160F3
:101E1000316821F0F00141EA000131607168E26946
:101E200021F47F4141EA0221716041D0FFF706FFB2
:101E3000B16844F6E452C1F30311C0F60002515CEC
:101E400040F2000201F01F0120FA01F140F2080007
:101E5000C2F200000068C2F200021160FFF7F8FB56
:101E6000002840F0F0815DE720F001003060FFF7CE
:101E7000CBFB0546306880077FF554AFFFF7C4FB06
:101E8000401B02284FF00300F4D9DCE1306840F039
:101E9000080030603068D4E9072120F0F0000843E2
:101EA0003060706820F47F4040EA0220706039E7BB
:101EB00001F0A0FC002840F06981B7E7306840F4E9
:101EC00080203060306840F480303060FFF79CFB49
:101ED000002D054614D000BF3068800313D4FFF7EF
:101EE00093FB401B64284FF00300F5D9ABE100BF22
:101EF000FFF78AFB401B64284FF0030000F2A38128
:101F000030688003F4D4207880072CD5B8F1040F12
:101F10001BD0B8F10C0F08BF022F16D0E168306853
:101F2000002900F07F8140F480703060FFF76CFB87
:101F3000054600BF306840050ED4FFF765FB401B27
:101F400002284FF00300F5D97DE13068400503D544
:101F5000E068002800F01A817068216920F0F850CC
:101F600040EA016070602078000760D42078400764
:101F700077D42078800600F1AC80A06A002800F0B9
:101F80006C81022840F0D380F068E16A00F003021F
:101F90008A4240F0E380226B6FF00F0300F0700183
:101FA00003EB0212914240F0D980616B00F4FE42D3
:101FB000B2EB012F40F0D280A16B00F07842B2EB7F
:101FC000C16F40F0CB80E26B0023CFF6E07303EBF0
:101FD000025200F4C0016FF31402914240F0BE803F
:101FE000216C4FF07E4202EB016100F0C06001F015
:101FF0007E41884240F0B2803068800100F12D813E
:10200000306840F080703060F06840F08070F060C0
:10201000FFF7FAFA04463068800100F11E81FFF7ED
:10202000F3FA001B02284FF00300F4D90BE16169B9
:10203000D6F89400002966D040F00100C6F894005C
:10204000FFF7E2FA054600BFD6F8940080078DD46A
:10205000FFF7DAFA401B0228F6D9032001B0BDE8E9
:10206000F083B06D10F0805908D1B06D40F0805011
:10207000B065B06D00F080500090009847F2000706
:10208000C4F200073868C00511D4386840F4807085
:102090003860FFF7B9FA05463868C00507D4FFF77E
:1020A000B3FA401B02284FF00300F5D9CBE0A56836
:1020B000052D00F08480012D00F08780D6F8900077
:1020C00020F00100C6F89000D6F8900020F004003F
:1020D0007FE0616AD6F8980000295BD040F00100EB
:1020E000C6F89800FFF790FA054600BFD6F89800AA
:1020F00080073FF542AFFFF787FA401B02284FF0F9
:102100000300F3D99FE020F00100C6F89400FFF728
:102110007BFA0546D6F8940080077FF527AFFFF7D6
:1021200073FA401B02284FF00300F3D98BE0B8F19B
:102130000C0F2BD0306820F080703060FFF764FA0D
:10214000044600BF3068800140F18080FFF75CFAF0
:10215000001B02284FF00300F4D974E0B8F10C0F13
:1021600014D03068400111D4306820F080703060A5
:10217000FFF74AFA05463068800172D5FFF744FA46
:10218000401B02284FF00300F5D95CE0012001B0AC
:10219000BDE8F08320F00100C6F89800FFF734FA9C
:1021A000054600BFD6F8980080077FF5E6AEFFF73A
:1021B0002BFA401B02284FF00300F3D943E0D6F876
:1021C000900040F00400C6F89000D6F8900040F06F
:1021D0000100C6F89000FFF717FA002D054641F2FE
:1021E000883712D0D6F89000800712D4FFF70CFA87
:1021F000401BB8424FF00300F4D924E0FFF704FA83
:10220000401BB8424FF003001DD8D6F8900080075D
:10221000F4D4B9F1000F7FF4ACAEB06D20F0805073
:10222000B065A6E620F480703060FFF7EDF9054652
:10223000306840057FF597AEFFF7E6F9401B0228AE
:102240004FF00300F4D901B0BDE8F083F0684FF619
:10225000FC71CFF6EE610840F060002001B0BDE8EF
:10226000F083F06848F28C01C0F29D1104F12C0754
:1022700000EA010C8ECF6FF00F00D4E90F5400EB91
:1022800002100022CFF6E07241EA0C0102EB055287
:1022900008436FF314024FF07E4540EA032005EB3C
:1022A0000465104305F07E4540EAC7602843F060AE
:1022B000306840F080703060F06840F08070F0600E
:1022C000FFF7A2F9044630688001C6D4FFF79CF9F5
:1022D000001B02284FF00300F5D9B4E7002804BF23
:1022E00001207047B0B50446406A20B1002020614B
:1022F00004F1140005E06068B0F5827F03D004F1BA
:102300001C00002101600025A56294F85D0020B941
:10231000204684F85C5000F04FF8022084F85D00FD
:102320002068D4F80CE00268BEF5E06F22F04002AD
:1023300002604EF4006298BF0125B2F5706F1CBFB9
:102340000023A3624FEA053CD4E90135D4E9042116
:1023500003F4827305F404452B4402F002021A448C
:10236000A36901F00101E569114403F4007211440D
:1023700005F03802256A114405F08002A56A11446F
:1023800005F40052114301600421626A0EF4706585
:1023900001EA1341636B45EA0C0502F01002294380
:1023A00003F0080311431943416000200121206616
:1023B00084F85D10B0BD000080B586B0006843F6BB
:1023C0000002C4F2000200219042CDE90411CDE9DF
:1023D0000211019101D006B080BD41F24C00C4F25F
:1023E0000200C26842F48042C260C26802F48042C5
:1023F0000092009A026842F002020260006800F057
:102400000200009000984FF4204001900220CDE996
:102410000201032004900520059040F20040C4F61C
:10242000000001A9FFF71EF806B080BD80B501F0DD
:102430002BFA80BD70470000704700007047000015
:1024400010B590F83C20012A04BF022010BD0122E3
:1024500080F83C20D1E90232D1E900CE22F47C524E
:1024600023F470531A4348F2FF73CFF6F07303EA74
:102470000E0342EA030E0A692CF477234EEA030C9A
:1024800022F476224B6942EA0C021A438B6A22F448
:10249000742223F4702342EA030C8B69D0F800E025
:1024A00042F60042C4F2010296454CEA03430FD1C2
:1024B00023F07C72D1E9073C496A0024CFF6F0444E
:1024C00004EA0151114323F00072114341EA0C0365
:1024D0000021CEF8443080F83C10084610BD0000C2
:1024E00010B590F83C20012A4FF002022DD00123B4
:1024F00080F83C3080F83D20026842F6004C53687A
:10250000D2F808E0C4F2010C624503D14C6823F410
:10251000700323430C6823F070032343B2F1804F10
:10252000536007D044F20003C4F201039A4201D081
:10253000624504D189682EF080031943916001211E
:10254000002280F83D1080F83C20104610BD0000AD
:1025500010B5044641B1082909D0042914BF04F17B
:10256000470004F1450004E004F1440001E004F1F7
:102570004600007801281CBF012010BD022041B197
:10258000082909D0042914BF84F8470084F84500BD
:1025900004E084F8440001E084F846002068042246
:1025A00001F02CFA2168486CB1F1804F40F40040F2
:1025B00048640BD044F20000C4F20100814205D00F
:1025C00042F60040C4F20100814212D1886807221D
:1025D000C0F201020240062A4FF000000ED0B2F510
:1025E000803F08BF10BD086840F00100086000206F
:1025F00010BD086840F001000860002010BD000018
:10260000002804BF0120704710B5044690F83D0033
:1026100028B9002084F83C00204600F023F802206E
:1026200084F83D002068211D01F092F9012084F812
:10263000480084F83E0084F83F0084F8400084F8A5
:10264000410084F8420084F8430084F8440084F890
:10265000450084F8460084F8470084F83D000020D7
:1026600010BD000080B582B00068B0F1804F14D07A
:1026700042F60041C4F20101884223D141F25800E0
:10268000C4F20200816841F400618160806800F456
:1026900000600190019802B080BD41F25800C4F280
:1026A00002000168002241F0010101600068002180
:1026B00000F00100009000981C20FFF713F81C2088
:1026C000FFF70CF802B080BD90F83D1001291CBF47
:1026D00001207047022180F83D100168B1F1804F60
:1026E0000BD044F20000C4F20100814205D042F652
:1026F0000040C4F20100814212D188680722C0F272
:1027000001020240062A4FF000000ED0B2F5803FD1
:1027100008BF7047086840F001000860002070475B
:10272000086840F0010008600020704710B50446BA
:1027300090F83C0001284FF0020008BF10BD0122B4
:1027400084F83C2084F83D00206888238268CFF616
:10275000FE731A4082600A684F2A0FDC1F2A22DDAE
:10276000202A23D0302A21D0402A4DD14B68CA6874
:10277000194601F0D1FA206840213BE06F2A17DDAD
:10278000B2F5005F20D0B2F5805F2AD0702A3BD12D
:10279000D1E9012CCB68614601F042F920688168DB
:1027A00041F077011AE00AB1102A2DD1114621E03B
:1027B000502A18D0602A27D14B68CA68194601F000
:1027C000BDFA2068602115E0D1E9012CCB68614693
:1027D00001F026F92068816841F480418160002081
:1027E0000BE0002009E04B68CA68194601F094FA32
:1027F0002068502101F020F90020012184F83D10CB
:10280000002184F83C1010BD0120F6E7704700005D
:1028100010B5044600680169890744BFC1685FEAD2
:10282000817140D420680169490744BFC1685FEAEB
:10283000417144D420680169090744BFC1685FEA57
:10284000017149D420680169C90644BFC1685FEAC3
:10285000C1614DD420680169C9071CBFC1685FEA26
:10286000C17152D120680169090644BFC1685FEA9D
:10287000016151D420680169C90544BFC1685FEA9C
:10288000016150D420680169490644BFC1685FEA0C
:1028900041614FD420680169890644BFC1685FEA7D
:1028A00081614ED410BD6FF00201016101212177D9
:1028B000806980074CD02046FFF7A8FF4EE06FF0FC
:1028C0000401016102212177806910F4407F48D022
:1028D0002046FFF79BFF4AE06FF0080101610421E9
:1028E0002177C069800745D02046FFF78FFF47E07A
:1028F0006FF01001016108212177C06910F4407F59
:1029000041D02046FFF782FF43E06FF001010161F3
:10291000204600F091F9A5E76FF0800101612046A3
:10292000FFF78AFDA6E76FF4807101612046FFF78B
:1029300081FDA7E76FF040010161204600F07EF9BC
:10294000A8E76FF0200101612046FFF777FD10BD79
:10295000204600F04FF8204600F0E0F800202077F5
:1029600060E7204600F046F8204600F0D7F8002047
:1029700020775FE7204600F03DF8204600F0CEF8D3
:10298000002020775EE7204600F034F8204600F073
:10299000C5F8002020775DE780B586B0006842F674
:1029A0000042C4F2010200219042CDE90411CDE9B8
:1029B0000211019101D006B080BD41F24C00C4F279
:1029C0000200026842F001020260006800F00100AB
:1029D000009000984FF4C07001900220CDE90201F0
:1029E00001200491059001A94FF09040FEF73AFDB7
:1029F00006B080BD70470000B0B5044690F83C00BA
:102A0000012804BF0220B0BD0D464FEAB2010120EB
:102A1000052984F83C0048D8DFE801F0030B131BBC
:102A200023332068294601F00FF8206850F8181F5A
:102A30001EE02068294601F04BF8206850F8181F66
:102A400026E02068294601F087F8206850F81C1F0E
:102A50000EE02068294601F0C3F8206850F81C1FDA
:102A600016E02068294601F0EFF8206850F8541F5E
:102A700041F008010160016821F004010160296949
:102A80000FE02068294601F013F9206850F8541F20
:102A900041F400610160016821F4806101602969ED
:102AA00009020268114301600020002184F83C10F3
:102AB000B0BD0000002804BF0120704710B50446D7
:102AC00090F83D0028B9002084F83C00204600F032
:102AD00023F8022084F83D002068211D00F038FF13
:102AE000012084F8480084F83E0084F83F0084F810
:102AF000400084F8410084F8420084F8430084F8E0
:102B0000440084F8450084F8460084F8470084F8BF
:102B10003D00002010BD000070470000704700001D
:102B200010B5044659B1081F4FEAB000032809D870
:102B3000DFE800F0020B0E1104F13F000DE004F19C
:102B40003E000AE004F1430007E004F1400004E025
:102B500004F1410001E004F14200007801281CBFAB
:102B6000012010BD61B1081F4FEAB00003280BD847
:102B7000DFE800F0020E1216022084F83F0012E097
:102B8000022084F83E000EE0022084F843000AE0B0
:102B9000022084F8400006E0022084F8410002E0B0
:102BA000022084F842002068012200F015FF21680D
:102BB00043F6FF70C4F20100814205DCB1F1804FA1
:102BC00021D042F6004007E044F20040C4F2010088
:102BD000814205D044F20000C4F20100814225D1B7
:102BE000486CB1F1804F40F4004048640BD044F28F
:102BF0000000C4F20100814205D042F60040C4F258
:102C00000100814212D188680722C0F2010202400D
:102C1000062A4FF000000ED0B2F5803F08BF10BD6D
:102C2000086840F001000860002010BD086840F00E
:102C300001000860002010BD7047000070470000D0
:102C4000704700007047000070470000B0B50446B0
:102C5000006840F62F03C169026885680B40202B8D
:102C600002F0200E07D1BEF1000F04D0616E99B3BF
:102C700020468847B0BD40F60F03194213D040F2FA
:102C80002013C0F2004305F0010C134013EB0C03BA
:102C900009D0CB0718BF12F4807340F0A2808B07D5
:102CA00000F1A980B2E0D4F860C00A40D3063AD55A
:102CB000BCF1010F37D110210162806840063ED47B
:102CC000B4F85800B4F85A10B4F85A20002A1CBFBF
:102CD000401A5FEA004101D1B0BD00BF216851E850
:102CE000001F226821F4907142E80013002BF5D1F7
:102CF000216851E8021F226821F0010142E8021315
:102D0000002BF5D12021E16700212166616600BF1B
:102D1000216851E8001F226821F0100142E80013E9
:102D2000002BF5D14EE0C90251D515F480014ED0EB
:102D30004FF4801101622046FFF784FFB0BD206F81
:102D4000006841688AB2002AC6D0B4F858309A4266
:102D5000C2D2A4F85A10006880062ED4206850E829
:102D6000000F216820F4807041E80002002AF5D1AC
:102D7000206850E8020F216820F0010041E80202BB
:102D8000002AF5D1206850E8020F216820F04000A9
:102D900041E80202002AF5D12020E06700202066E9
:102DA000206850E8000F216820F0100041E8000280
:102DB000002AF5D1206FFEF74BFAB4F85800B4F8AA
:102DC0005A10401A81B22046FFF73AFFB0BD1006F4
:102DD00000F18780500658BFB0BD204601F09CF836
:102DE000B0BD01230362D4F8803043F00103C4F87E
:102DF00080308B070AD5BCF1000F07D00223036295
:102E0000D4F8803043F00403C4F880304B070AD56F
:102E1000BCF1000F07D004230362D4F8803043F0E4
:102E20000203C4F880300B070AD55CEA0E0307D012
:102E300008230362D4F8803043F00803C4F88030DC
:102E40000B050BD512F0806308D04FF400630362CA
:102E5000D4F8800040F02000C4F88000D4F880004E
:102E600000283FF439AF02EA0100800603D5616E05
:102E700009B1204688472068D4F88010806801F0A6
:102E8000280100F04000401824D0204601F01CF832
:102E900020688068400619D5206850E8020F216834
:102EA00020F0400041E80202002AF5D1206F68B10D
:102EB00043F6B561C0F600018163FEF7EBF9002827
:102EC0003FF40AAF206F816B8847B0BD2046FFF703
:102ED000BBFEB0BD2046FFF7B7FE0020C4F880005F
:102EE000B0BDA16E00297FF4C3AEF5E610B5A0B168
:102EF0000446806F28B9002084F87400204600F052
:102F000025F82420A0672068016821F001010160F4
:102F1000204601F0B9F8012801D1012010BD606AF6
:102F200010B1204600F01CFF2068416821F4904158
:102F30004160816821F02A018160016841F001014E
:102F40000160204600F080FF10BD00002DE9F04335
:102F50009DB00446002501A85C211C95CDE91A55B9
:102F6000CDE91855FDF76EFA206843F60001C4F26A
:102F70000101884202D01DB0BDE8F083012001901C
:102F800001A80995FEF706FC002818BFFDF77EFE94
:102F900041F24C00C4F20200416940F2440841F49D
:102FA000804141614169022701F48041009100990B
:102FB0000168002641F001010160006818A900F0D5
:102FC0000100009000984FF4C060189003201B90FF
:102FD00007201C904FF09040C4F2020819971A96EF
:102FE000FEF740FA40F26C55C2F20005102005F1E0
:102FF00008014FF0800981E841024FF440502862F7
:103000002846C5E90087C5E90566EE61FEF7C4F903
:10301000002818BFFDF73AFEE566AC6240F2245581
:1030200008F11400C2F20005C5E900072846C5E909
:103030000266C5E90496C5E906662E62FEF7ACF99C
:10304000002818BFFDF722FE252000210022256759
:10305000AC62FEF747FB2520FEF740FB1DB0BDE844
:10306000F083000080B5C36F202B0BD100294FF0F7
:10307000010318BF002A01D1184680BD90F87430B2
:10308000012B01D1022080BD012380F87430002380
:103090000366D0F800C048F20003C4F200039C4568
:1030A00010D0DCF804301B020CD500BF036853E8D5
:1030B00000CFD0F800E04CF080634EE8003CBCF15B
:1030C000000FF3D101F000F90023184680BD000085
:1030D00080B5006843F60001C4F20101884218BFC0
:1030E00080BD40F2754140F2704CC2F20001C2F264
:1030F000000C0878DCF8003040F27002C2F20002E6
:10310000D054581CCCF8000040F27440C2F20000C9
:103110000122027040F2B060C2F200000122FFF70B
:10312000A1FF80BD70470000FEE7000081684FF6F8
:10313000C072C5F6FF7211408160704781684FF61A
:10314000C072C6F6FF72114001F180518160704774
:1031500040F20830C5F20400006800F0E0707047EB
:1031600000EB8100006E00F0F84070478068C0F30B
:10317000C00070478068C0F340707047806800F0FE
:10318000010070478068C0F3007070478068C0F32A
:1031900080007047C1F3012300EB8300D0F830C0FA
:1031A00001F01F011F238B40C2F384622CEA03034A
:1031B00002FA01F11943016370470000C1F3406353
:1031C00000EB8300D0F814C0C1F3045107238B40F7
:1031D0002CEA030302FA01F1194341617047000030
:1031E00080B54FF6FF7ECB43D0F8B0C0C0F2070EDB
:1031F00002F0180263EA0E032EFA02F203EA0C034D
:1032000011401943C0F8B01080BD000040F20831F1
:10321000C5F204010A6822F47C121043086070476A
:1032200040F20831C5F204010A6822F0E07210434E
:103230000860704700EB8100D0F860C04FF20001D9
:10324000C0F2FF3102F0F84201EA0C011A431143C7
:1032500041F000410166704700EB8100016E21F0F2
:103260000041016670470000B0B586B040F278407A
:1032700000210024C2F20000C5F20401012204254D
:10328000C0E900144FF48071CDE90444CDE9024453
:10329000CDE90044C0E90244C0E904250183C561C9
:1032A00080F82040C0E90A4480F83020446380F868
:1032B0003840FDF78BFE002818BFFDF7E7FC022021
:1032C000C0F23040009006200190022002907F2042
:1032D000CDE9030540F27840C2F20000694605944A
:1032E000FDF7DAFC002818BFFDF7D0FC0420C0F67B
:1032F000600000900C20019040F27840C2F2000083
:103300006946FDF7C9FC002818BFFDF7BFFC08207F
:10331000C0F6904000901220019040F27840C2F236
:1033200000006946FDF7B8FC002818BFFDF7AEFCA9
:103330001020C1F2C00000901820019040F27840A7
:10334000C2F200006946FDF7A7FC002818BFFDF790
:103350009DFC06B0B0BD000080B582B041F24800CF
:10336000C4F202000168002241F00101016000681E
:10337000002100F00100019001980B20FEF7B2F946
:103380000B20FEF7ABF90E2000210022FEF7AAF970
:103390000E20FEF7A3F90F2000210022FEF7A2F96C
:1033A0000F20FEF79BF902B080BD000081B041F212
:1033B0004C00C4F20200016841F080010160016824
:1033C00001F0800100910099016841F00401016061
:1033D000016801F0040100910099016841F00101C8
:1033E0000160016801F0010100910099016841F05C
:1033F00002010160006800F002000090009801B036
:103400007047000080B540F2B45043F60001C2F2AC
:103410000000C4F200014FF4827200234FF4E06C0C
:103420004FF4007E80E80E1007210822C0E9043323
:10343000C0E906E3C0E90833C0E90A31C0E90C324B
:10344000FEF74CFF002818BFFDF720FC80BD0000F0
:1034500010B59AB0002401A82C21CDE91844CDE97B
:103460001644CDE91444CDE91244CDE91044CDE928
:103470000E44CDE90C44FCF7E5FF40F2186042F63B
:103480000041C2F20000C4F2010140F2E73307221A
:1034900080E81600C0E90334C0E90544FFF7B0F83E
:1034A000002818BFFDF7F2FB4FF48050169040F251
:1034B0001860C2F2000016A9FFF738F9002818BFFB
:1034C000FDF7E4FB40F21860C2F20000FFF7F2FAE9
:1034D000002818BFFDF7DAFB40F218600024C2F2A2
:1034E000000013A9CDE913441594FEF7F9FF002855
:1034F00018BFFDF7CBFB6020CDE90C0440F218604B
:10350000C2F200000CA90022CDE90E44CDE910441E
:103510001294FFF771FA002818BFFDF7B7FB0020DF
:103520004FF40051CDE906104FF000710590CDE940
:103530000300CDE901000890CDE909100B9040F29D
:103540001860C2F2000001A9FEF77AFF002818BF38
:10355000FDF79CFB40F21860C2F20000FFF71CFA76
:103560001AB010BD80B588B040F264600021C2F28C
:1035700000004FF0630C0791CDE90511CDE903116F
:10358000CDE901114FF080424723C0E9021C0161DF
:103590008021C0E900238161FFF732F8002818BFBD
:1035A000FDF774FB4FF48050049040F26460C2F267
:1035B000000004A9FFF7BAF8002818BFFDF766FB62
:1035C00000200190039040F26460C2F2000001A963
:1035D000FEF786FF002818BFFDF758FB08B080BD36
:1035E00080B540F2B06043F60001C2F20000C4F2C0
:1035F000010100234FF00C0C4FF4E13280E80E0083
:10360000C0E90333C0E905C3C0E907334362FFF7EC
:103610006DFC002818BFFDF739FB40F2B06040F2A6
:103620007541C2F20000C2F200010122FFF71AFD4B
:1036300080BD0000FEE70000FEE7000000F007008C
:1036400080F00703042B28BF04234FF0FF3C03380E
:103650000CFA03F338BF0020994381400CFA00F0C4
:1036600022EA000008437047704700002DE9F0414E
:1036700041F20004C4F20204E2680E46910780465B
:1036800013D0E168D8F8000001F0030181420AD1AB
:1036900048B1E068D8F80410C0F302100130884245
:1036A00001D100253AE0012538E0D8F800000328D0
:1036B0000DD0022819D0012821D12168012301F061
:1036C0000202C1F3400183EA5205D9B926E021681C
:1036D00089034FF0010145D4226802F4802381EA76
:1036E0009345C2F3804169B918E02168012301F4D0
:1036F0008062C1F3802183EA922519B90EE0012589
:10370000002159B1E168D8F8042021F073016FF06D
:103710000F0303EB021208431043E06015B1284683
:10372000BDE8F081206820F080602060FDF76CFF2C
:10373000074600BF2068000105D5FDF765FFC01BE7
:103740000328F7D30325002DE9D1012E0ED00EBB9F
:10375000206948F2FF01C0F2FF710140D8E9022060
:10376000C00627E000250029CCD1D7E748F2FF01A9
:103770002069CFF6FF1101F1B4610140D8F81000C3
:103780000023CFF6E073D8F8082003EB00506FF366
:1037900014000FE0206948F2FF01CFF6FF1101404D
:1037A000D8F814004FF07E43D8F8082003EB0060EF
:1037B00000F07E4041EA022108432061206840F089
:1037C00080602060FDF720FF064600BF20680001F2
:1037D00005D4FDF719FF801B0328F7D30325002D1F
:1037E0009DD1D8F818002169084320612846BDE81A
:1037F000F0810000B0B582B041F25805C4F2020574
:1038000029680446C90015D4286840F08050286013
:10381000286800F0805001900198FDF7B3FF2968F7
:1038200021F080512960B0F5007F08D0802C0DD99F
:10383000032015E0FDF7A6FFB0F5007FF6D1812C3F
:103840000DD30120A02C88BF022009E0A4F1700054
:10385000B0FA80F04009802C08BF022000E0002070
:1038600042F20001C4F202010A6822F00702024497
:103870000A60096801F00701081A18BF012002B0A8
:10388000B0BD000070470000B0B501380024B4EBB3
:10389000106F1CBF0120B0BD4EF21005CEF2000526
:1038A00068604FF0FF300F2100F000FE0720AC6091
:1038B00028602046B0BD000080B5FDF7ABFE80BD9E
:1038C00010B596B005A84421FCF7BCFD002004907B
:1038D000CDE90200CDE900004FF40070FDF716FFBE
:1038E00010BB0120032405904FF48031CDE9104036
:1038F00014200691022112900720CDE9130105A89A
:103900000F911591FEF7FAF970B90F20CDE9000477
:103910000020CDE90200049068460421FEF798F8E3
:10392000002804BF16B010BDFDF7B0F94EF6885060
:10393000CEF20000016841F47001016070470000A0
:1039400080B540F26460C2F20000FEF761FF80BD06
:10395000B0B542F6004E0368C4F2010E704502D0C5
:10396000B0F1804F03D14A6823F07003134343F64C
:10397000FF72C4F2010244F2004C9042C4F2010C06
:1039800005DCB0F1804F0AD0704508D00BE06045EF
:1039900005D044F20002C4F20102904203D1CA6889
:1039A00023F4407313434C6923F080020B688D6845
:1039B000224370450260C562836218BF604504D12E
:1039C0000969016301214161B0BD44F20002C4F202
:1039D00001029042F6D1F3E780B501F01F014FF0EC
:1039E000010CD0F820E00CFA01F32EEA0303036285
:1039F000036A02FA01F11943016280BD80B501F04A
:103A00001F014FF0040CD0F820E00CFA01F32EEA6D
:103A100003030362036A02FA01F11943016280BDE4
:103A2000D0F808C011432CF47F4C41EA032141EA4D
:103A30000C01816070470000826822F0700211431F
:103A400041F0070181607047F0B5026A42F6004616
:103A500022F001020262026A4368D0F818E08C6822
:103A600022F00202D1F800C02243C4F2010644F25F
:103A7000004544F20004B042C4F20105C4F201045E
:103A800018BFA84206D1CF6822F00C0227F0040725
:103A90003A4301E0A042F6D0B04218BFA84206D196
:103AA000D1E9054523F4407323432B4301E0A042B1
:103AB000F6D04FF68C74CFF6FE740EEA040747EA90
:103AC0000C0743608761496841630262F0BD0000F2
:103AD000B0B5026A42F6004522F010020262026AA4
:103AE0004368D0F818C08C6822F02002C4F20105A7
:103AF000A84242EA041208D1CC6822F0C00E6FF04E
:103B0000400202EA041242EA0E02D1F800E0A842A2
:103B10000BD044F20044C4F20104A04205D044F2A8
:103B20000004C4F20104A04207D1D1E9054523F401
:103B3000406343EA840343EA850348F6FF44CFF633
:103B4000FF640CEA040545EA0E2543608561496877
:103B500081630262B0BD0000B0B5026A42F6004562
:103B600022F480720262026A4368D0F81CC08C683A
:103B700022F40072C4F20105A84242EA042209D1EB
:103B8000CC6822F4406E240240F2FF4224EA020292
:103B900042EA0E02D1F800E0A8420BD044F2004401
:103BA000C4F20104A04205D044F20004C4F20104AE
:103BB000A04207D1D1E9054523F4405343EA041359
:103BC00043EA05134FF68C74CFF6FE740CEA040535
:103BD00045EA0E054360C5614968C1630262B0BD34
:103BE000B0B5026A42F6004522F480520262D0F873
:103BF00020C04268C3690C68D1F808E0C4F201052E
:103C0000A8420BD044F20045C4F20105A84205D0F9
:103C100044F20005C4F20105A84204D14D6922F422
:103C2000804242EA851248F6FF45CFF6FF652B40F9
:103C300043EA04234260C3612CF40055496845EA15
:103C40000E3201640262B0BDB0B5026A42F60045B0
:103C500022F480320262D0F820C04268436D0C68C2
:103C6000D1F808E0C4F20105A8420BD044F20045A7
:103C7000C4F20105A84205D044F20005C4F20105D2
:103C8000A84204D14D6922F4803242EA05224FF65F
:103C90008F75CFF6FE752B402343426043652CF4AD
:103CA0000035496845EA0E4281650262B0BD0000F8
:103CB000B0B5026A42F6004522F480120262D0F8E2
:103CC00020C04268436D0C68D1F808E0C4F20105D9
:103CD000A8420BD044F20045C4F20105A84205D029
:103CE00044F20005C4F20105A84204D14D6922F452
:103CF000802242EA852248F6FF75CFF6FF652B4009
:103D000043EA0423426043652CF40015496845EA00
:103D10000E52C1650262B0BDD0F820C0036A23F024
:103D200001030362836923F0F00343EA02122CF0DB
:103D30000A0319438261016270470000036A23F09D
:103D4000100303628369D0F820C023F4704343EA70
:103D500002322CF0A00343EA011182610162704734
:103D600080B5416ACA070CD18A0715D44A071ED408
:103D70000A0727D4CA0630D48A0639D44A0657D54A
:103D800041E00268D0F828C0536823F4003343EAC6
:103D90000C0353608A07E9D50268D0F82CC0536839
:103DA00023F4803343EA0C0353604A07E0D50268EA
:103DB000D0F830C0536823F4802343EA0C035360E7
:103DC0000A07D7D50268D0F834C0536823F40043FB
:103DD00043EA0C035360CA06CED50268D0F838C057
:103DE000936823F4805343EA0C0393608A06C5D595
:103DF0000268D0F83CC0936823F4005343EA0C03F4
:103E000093604A0614D50268D0F840C05368BCF5E8
:103E1000801F23F4801343EA0C03536008D1D2F8C7
:103E200004C0D0F844E02CF4C00343EA0E0353600E
:103E3000090658BF80BD0168806C4A6822F40022E0
:103E40001043486080BD0000B0B582B00446002039
:103E5000C4F88000FDF7D8FB21680546096809070A
:103E60000BD56FF07E4C20464FF4001100222B46FC
:103E7000CDF800C000F086FA78B9206800684007E5
:103E80000ED56FF07E4C20464FF4800100222B4669
:103E9000CDF800C000F076FA10B1032002B0B0BD3A
:103EA0002020A067E0670020206684F8740002B03C
:103EB000B0BD000080B5806A0021A0F85A10A0F8BB
:103EC0005210FEF7C1FE80BD016851E8001F026874
:103ED00021F4907142E80013002BF5D1016851E8FC
:103EE000021F026821F0010142E80213002BF5D104
:103EF000016E01290AD100BF016851E8001F026864
:103F000021F0100142E80013002BF5D12021C167F8
:103F1000002101664166704780B500BF016851E825
:103F2000001F026821F0400142E80013002BF5D188
:103F30002021816700218166FFF7F4F880BD000031
:103F400080B5B0F85C100268C36F222B41D1928C0F
:103F5000436D114023F8021B4365B0F85A10013934
:103F6000A0F85A10B0F85A10002918BF80BD00BF41
:103F7000016851E8001F026821F4907142E80013C3
:103F8000002BF5D1016851E8021F026821F0010100
:103F900042E80213002BF5D12021C16700214166C0
:103FA000026E012A1AD10166016851E8001F0268F9
:103FB00021F0100142E80013002BF5D10168CA6915
:103FC000D20644BF10220A62B0F85810FEF738FE3D
:103FD00080BD108B40F00800108380BDFFF778F89B
:103FE00080BD000080B5B0F85C100268C36F222B62
:103FF00041D1928C436D11401970416D0131416581
:10400000B0F85A100139A0F85A10B0F85A10002927
:1040100018BF80BD016851E8001F026821F490714B
:1040200042E80013002BF5D1016851E8021F026835
:1040300021F0010142E80213002BF5D12021C167D4
:1040400000214166026E012A1AD10166016851E819
:10405000001F026821F0100142E80013002BF5D187
:104060000168CA69D20644BF10220A62B0F858102B
:10407000FEF7E6FD80BD108B40F00800108380BD88
:10408000FFF726F880BD000070B504462269D4E928
:104090000213006866690A43E1693243066846F61E
:1040A000F315CEF6FF750A432E4032430260426894
:1040B00022F440521A43426048F20002A369C4F25B
:1040C000000290421CBF266A3343866826F430669D
:1040D0003343836047F6FF73C4F2000398424FF006
:1040E000100312DC44F20046C4F20006B0421BD0BA
:1040F00044F60006C4F20006B04227D141F288031C
:10410000C4F202031B681B091BE0904213D043F664
:104110000006C4F20106B04218D141F28803C4F28D
:1041200002031B6864A60DE041F28803C4F2020397
:104130001B689B0805E041F28803C4F202031B6878
:104140009B0A59A603F0030356F82330904242F22B
:104150000040C0F2F40011D0B1F5004F1DD1082B82
:1041600000F25C800025DFE803F0055563595C59D7
:10417000595960000025FDF739FD59E0082B1AD880
:104180000026DFE803F005181F181C1818183E0059
:104190000026FDF72BFDB0B938E0082B64D80025C8
:1041A000DFE803F0055E6C6265626262690000250B
:1041B000FDF71CFD62E00020012620B926E0002664
:1041C000FDF73CFD10B36268012502EB4201884215
:1041D00065D31103884262D8010E000210EB520031
:1041E00041F100010023FCF751F84FF6FF42A0F522
:1041F0004071C0F20F0291420AD821683546C8606A
:104200004DE04FF4004000260028DCD1354646E062
:10421000012544E00025FDF7FDFC09E00020012513
:1042200006E00025FDF70AFD02E04FF400400025FE
:10423000A8B361684A0802EB4000B0FBF1F04FF60A
:10424000EF72A0F11001914208D84FF6F0710140D1
:10425000C0F3420022680844D06020E001251EE03F
:104260000025FDF7D7FC09E00020012506E0002528
:10427000FDF7E4FC02E04FF40040002578B16168EE
:104280004FF6EF7200EB5100B0FBF1F0A0F110011E
:10429000914203D8216880B2C86000E00125002166
:1042A00028466166A16670BD0000000004000000A1
:1042B00002000000080000000100000004000000EF
:1042C00002000000080000004165A0F85820A0F896
:1042D0005A2081680022426651B1B1F1805F0BD053
:1042E000B1F5805F0CD1016921B940F2FF110AE0FC
:1042F000016939B9FF2106E0016919B13F2102E0E6
:10430000002100E07F21A0F85C100021C0F880109F
:104310002221C167016851E8021F026841F00101D2
:1043200042E80213002BF5D18168B1F5805F01D11D
:10433000016909B343F6E571C0F600014166016900
:10434000002280F8742059B1016851E8001F02680A
:1043500041F4907142E80013002BF5D10AE000BF50
:10436000016851E8001F026841F0200142E8001393
:10437000002BF5D10020704743F64171C0F60001D3
:10438000DCE700002DE9F04381B004460068C06915
:104390000840401AB0FA80F04009904260D1DDF840
:1043A000208015460E46994608F1010709E000BF36
:1043B0002068C0693040801BB0FA80F04009A842F4
:1043C0004ED1002FF4D0FDF71FF9B8F1000F29D01E
:1043D000A0EB0900404525D820680168490744BF83
:1043E000C1695FEA0151E3D54FF40061016200BF8A
:1043F000206850E8000F216820F4D07041E80002E6
:10440000002AF5D1206850E8020F216820F0010051
:1044100041E80202002AF5D12020A067E067C4F835
:10442000800016E0206850E8000F216820F4D0706A
:1044300041E80002002AF5D1206850E8020F216807
:1044400020F0010041E80202002AF5D12020A067F7
:10445000E067002084F87400032001B0BDE8F08319
:10446000002001B0BDE8F08380B540F2B060C2F238
:104470000000FEF7EBFB80BDFEE70000002848BF10
:10448000704700F01F01012202FA01F14EF2001202
:104490004009CEF2000242F8201070474EF60C5050
:1044A000CEF200000068C0F3022070474EF61453AD
:1044B00000F00F02CEF2000309011A4400F160433C
:1044C000B0F1FF3FC8BF03F56442117070470000B0
:1044D0004EF60C51CEF200010A684FF6FF031A4067
:1044E00060F30A2242F0806040F0FD70086070477F
:1044F000FDF79EF8FFF7E4F9FEF758FFFEF72CFFF3
:10450000FEF7B2FEFEF77EFFFFF72CF8FFF768F824
:10451000FEF79EFF40F21864C2F200042046FEF748
:10452000D3F820460021FEF7FBFA20460021FEF7D3
:104530000FF842F63440C4F201004FF4FA7100BFA4
:104540000160FDE75FEA400C08BF91F0000F4FEA01
:104550008C234FEAC12243EA51514FEA1C5018BF45
:1045600000F5F0404FEA300018BF41F000415FEA2B
:104570006C5C00F02980BCF1FF3F08BF40F0804038
:104580007047130C06BF12044FF0100C4FF0000CD4
:10459000130E04BF12020CF1080C130F04BF12011A
:1045A0000CF1040C930F04BF92000CF1020CD30F1A
:1045B00004BF52000CF1010C11464FF00002A0F1B3
:1045C0001F00A0EB0C00704711F0004F08BF7047B0
:1045D00031F000413FF4D5AF0B0C06BF09044FF09A
:1045E000100C4FF0000C0B0E04BF09020CF1080C6C
:1045F0000B0F04BF09010CF1040C8B0F04BF8900E1
:104600000CF1020CCB0F04BF49000CF1010CCCF1F2
:10461000200322FA03F341EA030102FA0CF2A0EBB1
:104620000C0000F10100704723F07F4720F07F4C21
:1046300080EA030000F00040ACEB070303F57C5375
:1046400003F1FF032DE9804909B44FEA144324EA3A
:1046500003484FEA154B25EA0B4E0FF2042606EBF2
:1046600013273E7803FB0667C7F5000707FB06F62E
:104670004FEAD64606F102064FEA543707FB066CAE
:10468000CCF1005C4FEA1C472CEA074C0CFB06F50A
:1046900007FB06F404EB15464FEA961649085FEA55
:1046A000320234BF00204FF000404FEAD13706FB02
:1046B00007FC4FEA1C4C0CFB0BF7D21B03FB0CF75F
:1046C00061EB07010CFB0EF7B0EB074072EB1742F2
:1046D0000CFB08F734BFA2EB0742B2EB074261EBD9
:1046E00017414FEA0C444FEA910706FB07FC4FEADB
:1046F0001C4C0CFB0BF7B0EBC74072EB573203FBC3
:104700000CF734BFA2EBC742B2EBC74261EB5731A3
:104710000CFB0EF7B0EBC70072EB57720CFB08F7FF
:1047200034BFA2EBC702B2EBC70261EB57714FEA8D
:10473000816141EA92114FEA826242EA90124FEAA5
:10474000806004EBCC04039F4FEAD13706FB07FCE3
:104750004FEA1C4C0CFB0BF7D21B03FB0CF761EB75
:1047600007010CFB0EF7B0EB074072EB17420CFB96
:1047700008F734BFA2EB0742B2EB074261EB1741E7
:104780004FEA8C5504EB9C244FEA910706FB07FC8B
:104790004FEA1C4C0CFB0BF7B0EBC74072EB5732E7
:1047A00003FB0CF734BFA2EBC742B2EBC74261EB8D
:1047B00057310CFB0EF7B0EBC70072EB57720CFBD6
:1047C00008F734BFA2EBC702B2EBC70261EB577127
:1047D0004FEA816141EA92114FEA826242EA901205
:1047E0004FEA806015EB4C2544F100044FEAD137C5
:1047F00006FB07FC4FEA1C4C0CFB0BF7D21B03FB20
:104800000CF761EB07010CFB0EF7B0EB074072EB06
:1048100017420CFB08F734BFA2EB0742B2EB07428A
:1048200061EB17414FEA813141EA92414FEA82320E
:1048300042EA90424FEA80304FEA0C7615EB1C15A5
:1048400044F1000448EA03434EEA0B484FF0000EDF
:10485000B2EB080C71EB030724BF624639464EEBFE
:104860000E0E4FF0000B0018524149414BEB0B0B61
:10487000B2EB080C71EB03077BF1000B24BF62461F
:1048800039464EEB0E0E4FF0000B001852414941D5
:104890004BEB0B0BB2EB080C71EB03077BF1000B3E
:1048A00024BF624639464EEB0E0E51EA020718BF8E
:1048B00046F0010616EB0E7655F1000254F10001A8
:1048C00003D5BDE88901BDE80088BDE88901BDE8E0
:1048D0000048B619524141EB0101A3F101037047B1
:1048E00080807F7E7D7C7B7A79787776767574732D
:1048F000727171706F6E6E6D6C6C6B6A6A696868EC
:10490000676666656464636362616160605F5F5E81
:104910005E5D5D5C5C5B5B5A5A59595858575756F7
:10492000565555555454535352525251515050505C
:104930004F4F4F4E4E4D4D4D4C4C4C4B4B4B4A4AAE
:104940004A494949484848474747474646464545F2
:10495000454444444443434343424242424141412B
:104960009C46002B30D477002BD04FEA37071CB57C
:1049700003B44FF010004FF01001BAF1000F06D051
:10498000BCF1000FDCBF40F0080040F008014FF020
:1049900000000FBCBDE810400BF1010BBBF1010F93
:1049A00008BF5FEA170722BF12F1010211F10101EE
:1049B0004FF0004143F1000300F0004043EA0000E3
:1049C0007047F9D35708D0E746EA06464FEA16463D
:1049D00013F1400F1FDD13F1200FDFBF16430A460E
:1049E000002120335B42BED0C3F1200746EA0646D1
:1049F0004FEA164602FA07F746EA070622FA03F2DA
:104A0000C3F1200701FA07F742EA070221FA03F18E
:104A10004FF00003A7E746EA020646EA06464FEAD9
:104A2000164646EA0106BCBF46EA0646360C4FF07B
:104A300000034FF000024FF0000194E72DE9804C95
:104A400070B49A46934691E8380007C831EA400CA2
:104A500048BF34EA430C03D5FFF7E6FDFFF780FFBC
:104A6000F0BCBDE8008C2DE9804C70B49A469346AA
:104A700091E8380007C810F0804F08BF13F0804F4E
:104A800003D100F005F8FFF76BFFF0BCBDE8008C28
:104A900020F07F4723F07F4C80EA030000F00040C5
:104AA00007EB0C03A3F57C53A3F1FE0392F0000F78
:104AB00000F0B38095F0000F00F077802DE90149F8
:104AC0004FEA114021EA00484FEA144624EA06471B
:104AD00000FB06FC08FB06F607FB08F818EB064887
:104AE0004CEB164C00FB07F718EB07484CEB174054
:104AF0004FEA124B22EA0B4E4FEA154625EA0647CB
:104B00000BFB06FC0EFB06F607FB0EFE1EEB064E2D
:104B10004CEB164C0BFB07F71EEB074E4CEB174B01
:104B200018EB0B0840F1000018EB0E0B58EB0008D7
:104B300040F100008F1A4FF000014FF000063CBF1B
:104B4000C943661B14BFB5EB040C00213CBFC9432D
:104B5000F61B4FEA174427EA04454FEA1C472CEAA4
:104B6000074C04FB076205FB07F70CFB05F616EB89
:104B7000074642EB174204FB0CFC16EB0C4642EBDB
:104B80001C421BEB060658EB020241414EEA8E0E18
:104B900046EA9E0601D5BDE80189B619524141EBAE
:104BA0000101A3F10103BDE801894FEA144524EA9C
:104BB00005464FEA114721EA074C05FB07F406FBBF
:104BC00007F70CFB06F111EB074144EB174405FB1B
:104BD0000CFC11EB0C4144EB1C444FEA124722EA57
:104BE000074C05FB07F206FB07F70CFB06F616EB76
:104BF000074642EB174205FB0CFC16EB0C4642EB5A
:104C00001C456A1854F1000148BF7047B61952415B
:104C100041EB0101A3F10103704795F0000F37D07C
:104C20004FEA114221EA02464FEA144724EA074CB0
:104C300002FB07F106FB07F70CFB06F414EB074435
:104C400041EB174102FB0CFC14EB0C4441EB1C4103
:104C50004FEA154725EA074C02FB07F506FB07F765
:104C60000CFB06F616EB074645EB174502FB0CFC62
:104C700016EB0C4645EB1C42121951F1000148BFDE
:104C80007047B619524141EB0101A3F1010370478E
:104C90004FEA144524EA05464FEA114721EA074C3A
:104CA00005FB07F106FB07F70CFB06F212EB0742C8
:104CB00041EB174105FB0CFC12EB0C4251EB1C4184
:104CC0004FF0000648BF7047921841EB0101A3F175
:104CD0000103704703B401984100009850EAC120D5
:104CE00018BF04204A0D18BF40F0010040F2FF72C7
:104CF000B2EB515F08BF40F00200012808BF052059
:104D000002B0704710B500290AD00878002807D0F3
:104D100005487844FBF758FF002801D0002010BD5B
:104D20000248784410BD00003A0100003201000042
:104D3000F1EE100A4FF6FF71C0F2C03120EA010017
:104D400040F04070E1EE100A7047FBF7D6BC00005F
:104D500002400000000000A000000000054000002C
:104D6000000000C8000000000C4000000000409C53
:104D700000000000194000000020BCBE0000000040
:104D800034400000BFC91B8E00000004B540000085
:104D9000504BCFD06607E2CF010000006C4100000D
:104DA0003E8251AADFEEA73401000000D942000084
:104DB000DCB5A0E23A301F97FFFFFFFFB4450000CB
:104DC000FD25A0C8E9A3C14FFFFFFFFFFF3F000083
:104DD0000000008000000000FF3F00000000008095
:104DE00000000000000000000000000001020304B9
:104DF000060708090000000001020304A086010064
:104E0000400D0300801A060000350C0040420F00E0
:104E100080841E0000093D0000127A000024F40086
:104E200000366E010048E801006CDC02684E0008A4
:104E30000000002010000000C8010008784E0008A3
:104E400010000020280D0000E40100081C000000F4
:104E500043000000F8FFFFFF0C0000000E00000000
:104E60000F0000002E00000000093D0001000000BE
:084E700010000000000000002A
:040000050800018D61
:00000001FF
